{
  "contractName": "Counter",
  "abi": [
    {
      "inputs": [],
      "name": "incrementCounter",
      "outputs": [],
      "stateMutability": "nonpayable",
      "type": "function"
    },
    {
      "inputs": [],
      "name": "decrementCounter",
      "outputs": [],
      "stateMutability": "nonpayable",
      "type": "function"
    },
    {
      "inputs": [],
      "name": "getCount",
      "outputs": [
        {
          "internalType": "int256",
          "name": "",
          "type": "int256"
        }
      ],
      "stateMutability": "view",
      "type": "function"
    },
    {
      "inputs": [
        {
          "internalType": "int256",
          "name": "to",
          "type": "int256"
        }
      ],
      "name": "jumpTo",
      "outputs": [],
      "stateMutability": "nonpayable",
      "type": "function"
    }
  ],
  "bytecode": "0x60806040526000805534801561001457600080fd5b5061012c806100246000396000f3fe6080604052348015600f57600080fd5b50600436106063576000357c0100000000000000000000000000000000000000000000000000000000900480635b34b966146068578063a87d942c146070578063b097279514608c578063f5c5ad831460b7575b600080fd5b606e60bf565b005b607660d1565b6040518082815260200191505060405180910390f35b60b56004803603602081101560a057600080fd5b810190808035906020019092919050505060da565b005b60bd60e4565b005b60016000808282540192505081905550565b60008054905090565b8060008190555050565b6001600080828254039250508190555056fea26469706673582212201cabb89579f122e66a14da168befcb51e4cbef68eba84db63bb9818a64e9aede64736f6c634300060c0033",
  "source": "// SPDX-License-Identifier: non-open-source\r\npragma solidity >=0.6.0 <0.8.0;\r\n\r\ncontract Counter {\r\n    int256 private count = 0;\r\n    \r\n    function incrementCounter() public {\r\n        count += 1;\r\n    }\r\n\r\n    function decrementCounter() public {\r\n        count -= 1;\r\n    }\r\n\r\n    function getCount() public view returns (int256) {\r\n        return count;\r\n    }\r\n\r\n    function jumpTo(int256 to) public {\r\n        count = to;        \r\n    }\r\n}",
  "sourcePath": "D:/qiaoy/projects/blockchain/harmonyOne/payitforward/contracts/Counter.sol",
  "compiler": {
    "name": "solc",
    "version": "0.6.12+commit.27d51765.Emscripten.clang"
  },
  "schemaVersion": "3.0.22",
  "updatedAt": "2020-09-25T18:33:00.428Z",
  "devdoc": {
    "kind": "dev",
    "methods": {},
    "version": 1
  },
  "userdoc": {
    "kind": "user",
    "methods": {},
    "version": 1
  }
}