{
  "contractName": "Counter",
  "abi": [
    {
      "inputs": [],
      "name": "incrementCounter",
      "outputs": [],
      "stateMutability": "nonpayable",
      "type": "function"
    },
    {
      "inputs": [],
      "name": "decrementCounter",
      "outputs": [],
      "stateMutability": "nonpayable",
      "type": "function"
    },
    {
      "inputs": [],
      "name": "getCount",
      "outputs": [
        {
          "internalType": "int256",
          "name": "",
          "type": "int256"
        }
      ],
      "stateMutability": "view",
      "type": "function"
    },
    {
      "inputs": [
        {
          "internalType": "int256",
          "name": "to",
          "type": "int256"
        }
      ],
      "name": "jumpTo",
      "outputs": [
        {
          "internalType": "int256",
          "name": "",
          "type": "int256"
        }
      ],
      "stateMutability": "nonpayable",
      "type": "function"
    }
  ],
  "bytecode": "0x60806040526000805534801561001457600080fd5b50610158806100246000396000f3fe608060405234801561001057600080fd5b5060043610610069576000357c0100000000000000000000000000000000000000000000000000000000900480635b34b9661461006e578063a87d942c14610078578063b097279514610096578063f5c5ad83146100d8575b600080fd5b6100766100e2565b005b6100806100f4565b6040518082815260200191505060405180910390f35b6100c2600480360360208110156100ac57600080fd5b81019080803590602001909291905050506100fd565b6040518082815260200191505060405180910390f35b6100e0610110565b005b60016000808282540192505081905550565b60008054905090565b6000816000819055506000549050919050565b6001600080828254039250508190555056fea2646970667358221220c4e9fd3909a31e976752e4173cd142d4ad086a21afe3bd8a8d372fae7aa3288a64736f6c634300060c0033",
  "source": "// SPDX-License-Identifier: non-open-source\r\npragma solidity >=0.6.0 <0.8.0;\r\n\r\ncontract Counter {\r\n    int256 private count = 0;\r\n    \r\n    function incrementCounter() public {\r\n        count += 1;\r\n    }\r\n\r\n    function decrementCounter() public {\r\n        count -= 1;\r\n    }\r\n\r\n    function getCount() public view returns (int256) {\r\n        return count;\r\n    }\r\n\r\n    function jumpTo(int256 to) public returns (int256) {\r\n        count = to;\r\n        return count;\r\n    }\r\n}",
  "sourcePath": "D:/qiaoy/projects/blockchain/harmonyOne/payitforward/contracts/Counter.sol",
  "compiler": {
    "name": "solc",
    "version": "0.6.12+commit.27d51765.Emscripten.clang"
  },
  "schemaVersion": "3.0.22",
  "updatedAt": "2020-09-25T17:48:08.237Z",
  "devdoc": {
    "kind": "dev",
    "methods": {},
    "version": 1
  },
  "userdoc": {
    "kind": "user",
    "methods": {},
    "version": 1
  }
}